:100000003DC0000057C0000055C0000053C00000B4
:1000100051C000004FC000004DC000004BC00000A8
:1000200049C0000047C0000045C0000043C00000B8
:1000300041C000003FC000003DC00000D6C000002D
:1000400039C0000037C0000035C0000033C00000D8
:1000500031C000002FC000002DC000002BC00000E8
:1000600029C0000027C0000025C0000023C00000F8
:1000700021C000001FC000001DC0000011241FBED1
:10008000CFEFCDBFDFE3DEBF809140008093400023
:10009000811105C098ED21E094BF209341008CBBF5
:1000A00028E3A0E0B8E301C01D92AA30B207E1F74F
:1000B000CBD021C1A5CFCF92DF92EF92FF929FB715
:1000C000F89488E08093840A80918E0A81FFFCCFA7
:1000D00080918D0AE091A20AF091A30AC0900038A5
:1000E000D0900138E0900238F09003389FBF80FF35
:1000F00008C0E730F10528F48FEFC81AD80AE80ADB
:10010000F80A9F0136952795CF01820F911DE22FA6
:10011000E695E695322F32953F70E31BFF0B27FDE6
:100120003196E80FF91FA0E3B3E0A7019601CAD00A
:10013000F694E794D794C794C60ED71EE81EF91E0E
:10014000C701B6016E0F7F1F811D911DFF90EF90BB
:10015000DF90CF900895CF92DF92EF92FF92CF93EE
:10016000DF936B017C01A7DFEB01A5DF6C1B7D0B2F
:10017000683E7340A0F0C114D104E104F10439F4E5
:10018000DF91CF91FF90EF90DF90CF90089581E0C5
:10019000C81AD108E108F108C851DC4FE6CFC114F4
:1001A000D104E104F10409F7EBCF91E0811116C00D
:1001B000909326049091200490FD0AC09FB7F89474
:1001C00081110FC080913004877F809330049FBFDE
:1001D0008091010A8E7F8093010A089590932504EF
:1001E000E9CF809130048860F0CF8F9381E08093D5
:1001F0008D0A8FB78F93EF93FF93E0E0F8E39F931F
:1002000068948FEF0DC0E89484819581805D9C4F48
:1002100084839583885E934080F0848395838FEFF9
:100220009081981B919390819F4F919390819F4FC4
:10023000919390819F4F919336F39F91FF91EF910E
:100240008F918FBF8F91189588ED90E084BF909328
:100250006100E0E0F6E083E582838DE0858380E263
:10026000838381E08083109202028093030A9EEFD1
:100270009093260A9093270A9BE09093000AE0E867
:10028000FAE02DEF31E026A737A7118290E892839C
:10029000848791E190837894809321048091300445
:1002A000877F8093300481E080DF68EC70E080E03D
:1002B00090E051DF80E079DF60E273E080E090E081
:1002C0004ADFF1CF09D0A59F900DB49F900DA49F58
:1002D000800D911D11240895A29FB001B39FC0010C
:1002E000A39F700D811D1124911DB29F700D811D62
:0A02F0001124911D0895F894FFCF2A
:00000001FF
